S01800004F6E654D6F6E746854656D706C6174652E73726563A8
S1130000FDC0000020C100001EC100001CC1000092
S11300101AC1000018C1000016C1000014C100007C
S113002012C1000010C100000EC100000CC100008C
S11300300AC1000008C1000006C1000004C100009C
S113004002C1000000C10000FEC00000FCC00000AE
S1130050FAC00000F8C00000F6C00000F4C00000C0
S1130060F2C00000F0C00000EEC00000ECC00000D0
S1130070EAC00000E8C00000E6C00000E4C00000E0
S1130080E2C00000E0C00000DEC00000DCC00000F0
S1130090DAC00000D8C00000D6C00000D4C0000000
S11300A0D2C00000D0C00000CEC00000CCC0000010
S11300B0CAC00000C8C00000C6C00000BDC3000024
S11300C0C2C00000C0C00000BEC00000BCC0000030
S11300D0BAC00000B8C00000B6C00000B4C0000040
S11300E0B2C00000B0C00000AEC00000ACC0000050
S11300F0AAC00000A8C00000A6C00000A4C0000060
S1130100A2C00000A0C0000029C400009CC00000E0
S11301109AC0000098C0000096C0000094C000007F
S113012092C0000090C000008EC000008CC000008F
S11301308AC0000088C0000086C0000084C000009F
S113014082C0000080C000007EC000007CC00000AF
S11301507AC0000078C0000076C0000074C00000BF
S113016072C0000070C000006EC000006CC00000CF
S11301706AC0000068C0000066C0000064C00000DF
S113018062C0000060C000005EC000005CC00000EF
S11301905AC0000058C0000056C0000054C00000FF
S11301A052C0000050C000004EC000004CC000000F
S11301B04AC0000048C0000046C0000044C000001F
S11301C042C0000040C000003EC000003CC000002F
S11301D03AC0000038C0000036C0000034C000003F
S11301E032C0000030C000002EC000002CC000004F
S11301F02AC0000028C0000026C0000011241FBE31
S1130200CFEFCDBFDFE3DEBF00E00CBF18BE19BEE9
S11302101ABE1BBE10E2A0E0B0E2E4ECF2E100E0A2
S11302200BBF02C007900D92A832B107D9F71BBECD
S113023020E2A8E2B0E201C01D92A833B207E1F7C0
S113024079D30C946009DCCECF93DF93EB017ED09D
S11302508883DF91CF91089571C00895CF93DF9380
S1130260CDB7DEB72797CDBFDEBF60E183E03BD3D8
S1130270E0E4F6E080818860808380EA98E08093FF
S11302802C2090932D208CE291E080932A2090934F
S11302902B2084E291E08093282090932920E6E0AB
S11302A0F0E284818D8385818E8386818F83808132
S11302B09181A281B38189839A83AB83BC8360E1FA
S11302C083E011D3BE016F5F7F4F80EA98E053D182
S11302D063E771E08CE891E0ADD32796CDBFDEBF34
S11302E0DF91CF910895CF93DF931F92CDB7DEB7FF
S11302F080912C2090912D20E0912820F0912920AC
S1130300BE016F5F7F4F19958981082E000C990BF0
S11303100F90DF91CF910895682F80912C209091B8
S11303202D20E0912A20F0912B20199599231CF07F
S113033081E090E008958FEF9FEF0895FC01918193
S113034095FFFDCF608380E090E00895FC019181EA
S11303509923ECF7808108954F925F926F927F9278
S11303608F929F92AF92BF92EF92FF920F931F933F
S1130370CF937C014A015B0128013901FC0184818E
S113038082FF16C0D901C801689412F8B695A795E2
S1130390979587951694D1F7B901A801032E36E1F4
S11303A076956795579547953A95D1F7302D15C0B1
S11303B0D901C801689413F8B695A79597958795C0
S11303C01694D1F7B901A801032E37E17695679504
S11303D0579547953A95D1F7302D88159905AA0573
S11303E0BB0508F4A2C084169506A606B70608F451
S11303F09EC0F701848182FD04C0880C991CAA1C4C
S1130400BB1CC301B201A5019401F2D22F3F3105F7
S11304104105510508F48DC08FEF90E0A0E0B0E0F5
S1130420C9EF05C0281739074A075B0758F0880F3A
S1130430991FAA1FBB1FCD3F0CF48160CF5FC7304B
S113044089F74DC0CC230CF04AC0D501C401880FF4
S1130450991FAA1FBB1F880F991FAA1FBB1F880FB4
S1130460991FAA1FBB1F481A590A6A0A7B0ACE3F62
S1130470ECF48DEF9FEF8C1B9109C7FD939504C09D
S1130480440C551C661C771C8A95D2F7D501C4010F
S1130490B695A79597958795BC01CD01640D751DFB
S11304A0861D971DA5019401A3D235C083E08C0F4E
S11304B0A501940104C0220F331F441F551F8A95C0
S11304C0D2F7DA01C901B695A79597958795BC012E
S11304D0CD01640D751D861D971D8AD21CC083E055
S11304E08C0FA501940104C0220F331F441F551F14
S11304F08A95D2F7DA01C901B695A795979587959C
S1130500BC01CD01640D751D861D971D71D221504E
S1130510310941095109832F8F70C295C07FC82BBF
S1130520F701C783268381E018C080E016C080E00D
S113053014C0D501C401880F991FAA1FBB1F880FBF
S1130540991FAA1FBB1F880F991FAA1FBB1F481AF8
S1130550590A6A0A7B0AC9EF8CCFCF911F910F9178
S1130560FF90EF90BF90AF909F908F907F906F908F
S11305705F904F9008950F931F93CF93DF93EC01F7
S11305808B01009709F436C1803C910521F460E1A8
S113059080E0A9D12FC1C03484E0D80721F468E0F9
S11305A080E0A1D127C1C115E4E0DE0721F464E0B5
S11305B080E099D11FC1C038F1E0DF0721F462E087
S11305C080E091D117C1C11581E0D80721F461E021
S11305D080E089D10FC1C038E3E0DE0721F461E097
S11305E081E081D107C1C039F3E0DF0721F461E084
S11305F082E079D1FFC0C11582E0D80721F462E01E
S113060081E071D1F7C0C034E2E0DE0721F462E09A
S113061082E069D1EFC0C115F3E0DF0721F464E0A3
S113062081E061D1E7C0C03283E0D80721F464E0FF
S113063082E059D1DFC0C115E8E0DE0721F461E0B2
S113064083E051D1D7C0C115F9E0DF0721F461E09F
S113065084E049D1CFC0C1158AE0D80721F461E014
S113066085E041D1C7C0C115EBE0DE0721F461E0AC
S113067086E039D1BFC0C034F8E0DF0721F462E07E
S113068083E031D1B7C0C03489E0D80721F462E0F7
S113069084E029D1AFC0C034EAE0DE0721F462E08F
S11306A085E021D1A7C0C034FBE0DF0721F462E07C
S11306B086E019D19FC0C03988E0D80721F464E0EE
S11306C083E011D197C0C039E9E0DE0721F464E08A
S11306D084E009D18FC0C039FAE0DF0721F464E077
S11306E085E001D187C0C0398BE0D80721F464E0EC
S11306F086E0F9D07FC0C03CE8E0DE0721F468E082
S113070083E0F1D077C0C03CF9E0DF0721F468E072
S113071084E0E9D06FC0C03C8AE0D80721F468E0E7
S113072085E0E1D067C0C03CEBE0DE0721F468E07F
S113073086E0D9D05FC0C03AF8E0DF0721F460E179
S113074083E0D1D057C0C03A89E0D80721F460E1F2
S113075084E0C9D04FC0C03AEAE0DE0721F460E18A
S113076085E0C1D047C0C03AFBE0DF0721F460E177
S113077086E0B9D03FC0C03B88E0D80721F460E2EE
S113078083E0B1D037C0C03BE9E0DE0721F460E28A
S113079084E0A9D02FC0C03BFAE0DF0721F460E277
S11307A085E0A1D027C0C03B8BE0D80721F460E2EC
S11307B086E099D01FC0C038E4E0DE0721F460E48D
S11307C083E091D017C0C039F4E0DF0721F460E47E
S11307D084E089D00FC0C03A84E0D80721F460E4F3
S11307E085E081D007C0C03BE4E0DE0719F460E493
S11307F086E079D08D818F738D83F8019581848112
S1130800892B9681911198E0892B8D83F801408181
S113081051816281738100E018E428EE31E0CE0159
S11308209BDD9C8198609C839C8190619C83DF917B
S1130830CF911F910F9108951F920F920FB60F92AF
S1130840112408B60F9218BE0BB60F921BBE8F93DD
S11308509F93EF93FF93E0ECF7E0948188E089277E
S11308608483FF91EF919F918F910F900BBE0F9016
S113087008BE0F900FBE0F901F901895CF93DF9373
S11308801F921F92CDB7DEB78FEF809370008093D5
S1130890710080937200809373008093740080933E
S11308A07500809376008FB78A83F8949A81E0E587
S11308B0F0E08081826080839FBF818181FFFDCFD2
S11308C061E080E490E025D08FB78983F894998122
S11308D0E0E5F0E080818E7F80839FBF0F900F90D2
S11308E0DF91CF910895CF93DF931F92CDB7DEB7F9
S11308F09FB79983F8949981E82FF0E0E059FF4F6E
S113090060958081682360839FBF0F90DF91CF91B2
S113091008951BBEFC0128ED24BF6083089504C024
S1130920615071098109910961157105810591056C
S1130930B9F70895A3DF92DC17E0CDE0D0E21F926F
S11309401F93DF93CF93C0D06BEA70EB88E290E003
S1130950E6DF0F900F900F900F90F1CF1F920F9240
S11309600FB60F92112408B60F9218BE09B60F9253
S113097019BE0AB60F921ABE0BB60F921BBE1F9376
S11309802F933F934F935F936F937F938F939F9393
S1130990AF93BF93CF93DF93EF93FF93C0ECD7E074
S11309A08C8118E081278C8366E573E288E090E00F
S11309B0B6DF8C8118271C83FF91EF91DF91CF91D3
S11309C0BF91AF919F918F917F916F915F914F9163
S11309D03F912F911F910F900BBE0F900ABE0F9065
S11309E009BE0F9008BE0F900FBE0F901F90189570
S11309F0A1E21A2EAA1BBB1BFD010DC0AA1FBB1F1F
S1130A00EE1FFF1FA217B307E407F50720F0A21B90
S1130A10B30BE40BF50B661F771F881F991F1A94FD
S1130A2069F760957095809590959B01AC01BD0127
S1130A30CF0108950F931F93CF93DF93009731F461
S1130A406115710519F480E090E039C08B01EC0167
S1130A506EE070E081E090E041D2FC01892B99F3D3
S1130A6080E883830115110571F00287138781E8FB
S1130A70838380912E2090912F20892B21F4E09361
S1130A802E20F0932F202097C9F0C087D18783812F
S1130A90826083838091302090913120892B71F47E
S1130AA0E0933020F09331208091322090913320D4
S1130AB0892B21F4E0933220F0933320CF01DF918E
S1130AC0CF911F910F910895CF93DF93CDB7DEB7E8
S1130AD0AE014A5F5F4FFA0161917191AF0180915C
S1130AE030209091312003D0DF91CF9108952F923F
S1130AF03F924F925F926F927F928F929F92AF92AA
S1130B00BF92CF92DF92EF92FF920F931F93CF93F6
S1130B10DF93CDB7DEB72B97CDBFDEBF6C017B0172
S1130B208A01FC0116821782838181FFBFC1CE0135
S1130B3001963C01F6019381F70193FD859193FFA2
S1130B4081917F01882309F4ADC1853239F493FD85
S1130B50859193FF81917F01853221F4B60190E064
S1130B6015D3E8CF912C212C312CFFE1F315D8F0CB
S1130B708B3279F038F4803279F08332A1F4232D6A
S1130B8020611DC08D3261F0803369F4232D216012
S1130B9016C0832D8260382EE32DE4603E2E2AC0D9
S1130BA0F32DF8601DC037FC2DC020ED280F2A302E
S1130BB040F08E32B9F436FC75C1232D2064322EF8
S1130BC019C036FE06C08AE0989E200D1124922E8C
S1130BD011C0EAE02E9E200D1124222EF32DF06286
S1130BE03F2E08C08C3621F4832D8068382E02C035
S1130BF0883641F4F70193FD859193FF81917F013C
S1130C008111B3CF982F9F7D9554933028F40C5FB6
S1130C101F4F9FE399830DC0833631F0833771F002
S1130C20833509F055C020C0F801808189830E5FA7
S1130C301F4F88248394912C530112C02801F2E0A1
S1130C404F0E511CF801A080B18036FE03C0692DFF
S1130C5070E002C06FEF7FEFC5018DD24C018201BD
S1130C60F32DFF773F2E15C0280122E0420E511CC0
S1130C70F801A080B18036FE03C0692D70E002C087
S1130C806FEF7FEFC50165D24C01F32DF0683F2E65
S1130C90820133FC19C0822D90E088169906A0F4D5
S1130CA0B60180E290E072D22A94F5CFF50137FCC8
S1130CB0859137FE81915F01B60190E067D22110E2
S1130CC02A9421E0821A91088114910479F7E1C0F1
S1130CD0843611F0893639F5F80137FE07C0608192
S1130CE07181828193810C5F1F4F08C06081718183
S1130CF0072E000C880B990B0E5F1F4FF32DFF7608
S1130D003F2E97FF09C090958095709561957F4F10
S1130D108F4F9F4FF0683F2E2AE030E0A30172D23C
S1130D20882E861844C0853731F4232D2F7EB22EA9
S1130D302AE030E025C0932D997FB92E8F36C1F07B
S1130D4018F4883579F0AEC0803719F0883721F06F
S1130D50A9C0E92FE061BE2EB4FE0DC0FB2DF460E6
S1130D60BF2E09C034FE0AC0292F2660B22E06C049
S1130D7028E030E005C020E130E002C020E132E0AC
S1130D80F801B7FE07C060817181828193810C5F95
S1130D901F4F06C06081718180E090E00E5F1F4F9D
S1130DA0A30130D2882E8618FB2DFF773F2E36FE06
S1130DB00DC0232D2E7FA22E891458F434FE0BC0AF
S1130DC032FC09C0832D8E7EA82E05C0B82CA32C1E
S1130DD003C0B82C01C0B92CA4FE0FC0FE01E80D5D
S1130DE0F11D8081803321F49A2D997EA92E09C0AA
S1130DF0A2FE06C0B394B39404C08A2D867809F089
S1130E00B394A3FC10C0A0FE06C0B21480F4280C56
S1130E10922C9B180DC0B21458F4B60180E290E0F5
S1130E20B5D1B394F8CFB21418F42B1802C0982C8F
S1130E30212CA4FE0FC0B60180E390E0A7D1A2FE4E
S1130E4016C0A1FC03C088E790E002C088E590E0EA
S1130E50B6010CC08A2D867851F0A1FE02C08BE247
S1130E6001C080E2A7FC8DE2B60190E08FD1891425
S1130E7030F4B60180E390E089D19A94F8CF8A9453
S1130E80F301E80DF11D8081B60190E07FD181105E
S1130E90F6CF222009F44ECEB60180E290E076D15E
S1130EA02A94F7CFF6018681978102C08FEF9FEFD6
S1130EB02B96CDBFDEBFDF91CF911F910F91FF9095
S1130EC0EF90DF90CF90BF90AF909F908F907F90E6
S1130ED06F905F904F903F902F9008950F931F93C2
S1130EE0CF93DF93869F8001879F100D969F100DEF
S1130EF01124C8010DD0EC01009721F0A80160E095
S1130F0070E032D1CE01DF91CF911F910F910895FE
S1130F100F931F93CF93DF938230910510F482E0F7
S1130F2090E0E0913620F091372020E030E0A0E01E
S1130F30B0E0309719F14081518102811381481743
S1130F405907C8F08417950769F4109731F0129681
S1130F500C93129713961C9327C00093362010937A
S1130F60372022C02115310519F04217530718F410
S1130F709A01BD01EF01DF01F801DBCF2115310535
S1130F80F9F0281B390B2430310580F48A819B81C8
S1130F906115710521F0FB018283938304C0809362
S1130FA0362090933720FE01329644C0FE01E20FB2
S1130FB0F31F8193919322503109288339833AC0D6
S1130FC02091342030913520232B41F420910220AC
S1130FD03091032020933420309335202091002039
S1130FE0309101202115310541F42DB73EB74091D0
S1130FF0042050910520241B350BE0913420F091FE
S11310003520E217F307A0F42E1B3F0B28173907EE
S113101078F0AC014E5F5F4F2417350748F04E0F50
S11310205F1F40933420509335208193919302C0E5
S1131030E0E0F0E0CF01DF91CF911F910F9108958F
S1131040CF93DF93009709F481C0FC013297128299
S11310501382A0913620B0913720109781F420811B
S11310603181820F931F209134203091352028172D
S1131070390751F5E0933420F093352067C0ED0132
S113108020E030E0CE17DF0740F44A815B819E0107
S113109041155105F1F0EA01F5CFC283D3834081B4
S11310A05181840F951FC817D90759F488819981F4
S11310B0840F951F0296808391838A819B8182830A
S11310C093832115310529F4E0933620F0933720DA
S11310D03DC0E901EA83FB8349915991C40FD51FAF
S11310E0EC17FD0761F480819181840F951F0296AE
S11310F0E90188839983828193818A839B83E0E0D9
S1131100F0E012968D919C911397009719F0FD01D0
S1131110DC01F7CF8D919C9111979D012E5F3F4F7C
S1131120820F931F209134203091352028173907DE
S113113069F4309729F4109236201092372002C0B7
S113114012821382A0933420B0933520DF91CF9183
S11311500895FC010590615070400110D8F7809506
S113116090958E0F9F1F0895DC0101C06D9341502F
S11311705040E0F70895FC01615070400190011067
S1131180D8F7809590958E0F9F1F08950F931F9306
S1131190CF93DF93FB01238121FD03C08FEF9FEFEA
S11311A02CC022FF16C04681578124813581421705
S11311B0530744F4A081B1819D012F5F3F4F2083E9
S11311C031838C93268137812F5F3F4F268337836A
S11311D014C08B01EC01FB010084F185E02D19950D
S11311E0892BE1F6D80116968D919C91179701965B
S11311F016968D939C931797CE01DF91CF911F91F3
S11312000F910895FA01AA27283051F1203181F174
S1131210E8946F936E7F6E5F7F4F8F4F9F4FAF4FFA
S1131220B1E03ED0B4E03CD0670F781F891F9A1F0D
S1131230A11D680F791F8A1F911DA11D6A0F711DC1
S1131240811D911DA11D20D009F468943F912AE0CD
S1131250269F11243019305D3193DEF6CF010895B5
S1131260462F4770405D4193B3E00FD0C9F7F6CFE6
S1131270462F4F70405D4A3318F0495D31FD4052AE
S1131280419302D0A9F7EACFB4E0A6959795879544
S113129077956795BA95C9F7009761057105089523
S11312A09B01AC010A2E06945795479537952795CF
S11312B0BA95C9F7620F731F841F951FA01D089567
S10712C0F894FFCFCC
S11312C4000038202000802500000300014D79200F
S11312D46661766F72697465206E756D62657220DD
S10B12E469733A2025750A0024
S9030000FC
