:10000000FDC0000009C1000007C1000005C10000DB
:1000100003C1000001C10000FFC00000FDC00000DE
:10002000FBC00000F9C00000F7C00000F5C00000F0
:10003000F3C00000F1C0000012C10000EDC00000DC
:10004000EBC00000E9C00000E7C00000E5C0000010
:10005000E3C00000E1C00000DFC00000DDC0000020
:10006000DBC00000D9C00000D7C00000D5C0000030
:10007000D3C00000D1C00000CFC00000CDC0000040
:10008000CBC00000C9C00000C7C00000C5C0000050
:10009000C3C00000C1C00000BFC00000BDC0000060
:1000A000BBC00000B9C00000B7C00000B5C0000070
:1000B000B3C00000B1C00000AFC00000AEC000007F
:1000C000ABC00000A9C00000A7C00000A5C0000090
:1000D000A3C00000A1C000009FC000009DC00000A0
:1000E0009BC0000099C0000097C0000095C00000B0
:1000F00093C0000091C000008FC000008DC00000C0
:100100008BC0000089C0000027C1000085C000002E
:1001100083C0000081C000007FC000007DC00000DF
:100120007BC0000079C0000077C0000075C00000EF
:1001300073C0000096C000006FC000006DC00000DA
:100140006BC0000069C0000067C0000065C000000F
:1001500063C0000061C000005FC000005DC000001F
:100160005BC0000059C0000057C0000055C000002F
:1001700053C0000051C000004FC000004DC000003F
:100180004BC0000049C0000047C0000045C000004F
:1001900043C0000041C000003FC000003DC000005F
:1001A0003BC0000039C0000037C0000035C000006F
:1001B00057C0000031C000002FC000002DC000005B
:1001C0002BC0000029C0000027C0000025C000008F
:1001D00023C0000021C000001FC000001DC000009F
:1001E0001BC0000019C0000017C0000015C00000AF
:1001F00013C0000011C000000FC0000011241FBE7A
:10020000CFEFCDBFDFE3DEBF00E00CBF18BE19BEED
:100210001ABE1BBEF7D00FC1F3CE1F920F920FB6BE
:100220000F92112408B60F9218BE0BB60F921BBE88
:100230008F939F93EF93FF93E0ECF7E0948188E036
:1002400089278483FF91EF919F918F910F900BBE2F
:100250000F9008BE0F900FBE0F901F901895DDCF26
:10026000DCCFDBCFCF93DF931F921F92CDB7DEB7EA
:100270008FEF809370008093710080937200809361
:1002800073008093740080937500809376008FB71D
:100290008A83F8949A81E0E5F0E08081826080832F
:1002A0009FBF818181FFFDCF61E080E490E00FD0AE
:1002B0008FB78983F8949981E0E5F0E080818E7FA3
:1002C00080839FBF0F900F90DF91CF9108951BBE49
:1002D000FC0128ED24BF60830895CF93DF93FC01D8
:1002E00020E030E0C62FD0E0DE01022E02C0B5953E
:1002F000A7950A94E2F7A0FD508B2F5F3F4F3196F0
:100300002830310589F740FF0AC041FF03C0FC01D6
:10031000658302C0FC016683FC01618302C0FC01AD
:100320006283DF91CF91089543E050E068E080EC74
:1003300097E0D3DF40E058E164E080EC97E0CDCF78
:10034000089504C061507109810991096115710511
:1003500081059105B9F708951F920F920FB60F927C
:10036000112408B60F9218BE09B60F9219BE0AB62C
:100370000F921ABE0BB60F921BBE2F933F934F9353
:100380005F936F937F938F939F93AF93BF93CF931D
:10039000DF93EF93FF93C0E8D6E08C8180958C8348
:1003A00066E573E288E090E0CCDF8C8180958C83F9
:1003B000FF91EF91DF91CF91BF91AF919F918F917D
:1003C0007F916F915F914F913F912F910F900BBE55
:1003D0000F900ABE0F9009BE0F9008BE0F900FBE7F
:1003E0000F901F90189587E08093A2007894E0E02A
:1003F000F6E080818E7F80838AE1808B81E0828736
:100400008187089591DF2EDFE0E8F6E08FEF8083AB
:100410008483E9DFC0E8D6E01FEF1C826CEA72EC4F
:1004200082EA90E08EDF8C811C836CEA72EC82EAB7
:0A04300090E087DFF2CFF894FFCFD1
:00000001FF
