:10000000FDC000001FC100001DC100001BC1000099
:1000100019C1000017C1000015C1000013C1000084
:1000200011C100000FC100000DC100000BC1000094
:1000300009C1000007C1000005C1000003C10000A4
:1000400001C10000FFC00000FDC00000FBC00000B7
:10005000F9C00000F7C00000F5C00000F3C00000C8
:10006000F1C00000EFC00000EDC00000EBC00000D8
:10007000E9C00000E7C00000E5C00000E3C00000E8
:10008000E1C00000DFC00000DDC00000DBC00000F8
:10009000D9C00000D7C00000D5C00000D3C0000008
:1000A000D1C00000CFC00000CDC00000CBC0000018
:1000B000C9C00000C7C00000C5C00000CCC300001C
:1000C000C1C00000BFC00000BDC00000BBC0000038
:1000D000B9C00000B7C00000B5C00000B3C0000048
:1000E000B1C00000AFC00000ADC00000ABC0000058
:1000F000A9C00000A7C00000A5C00000A3C0000068
:10010000A1C000009FC0000062C400009BC00000AE
:1001100099C0000097C0000095C0000093C0000087
:1001200091C000008FC000008DC000008BC0000097
:1001300089C0000087C0000085C0000083C00000A7
:1001400081C000007FC000007DC000007BC00000B7
:1001500079C0000077C0000075C0000073C00000C7
:1001600071C000006FC000006DC000006BC00000D7
:1001700069C0000067C0000065C0000063C00000E7
:1001800061C000005FC000005DC000005BC00000F7
:1001900059C0000057C0000055C0000053C0000007
:1001A00051C000004FC000004DC000004BC0000017
:1001B00049C0000047C0000045C0000043C0000027
:1001C00041C000003FC000003DC000003BC0000037
:1001D00039C0000037C0000035C0000033C0000047
:1001E00031C000002FC000002DC000002BC0000057
:1001F00029C0000027C0000025C0000011241FBE38
:10020000CFEFCDBFDFE3DEBF00E00CBF18BE19BEED
:100210001ABE1BBE10E2A0E0B0E2E2E2FEE000E0A7
:100220000BBF02C007900D92AA31B107D9F71BBED0
:1002300020E2AAE1B0E201C01D92AA32B207E1F7C2
:10024000BCD3EDC5DDCE04C06150710981099109AF
:100250006115710581059105B9F70895CF93DF9375
:10026000EB0183D08883DF91CF91089576C0089504
:10027000CF93DF93CDB7DEB72797CDBFDEBF60E169
:1002800083E040D3E0E4F6E080818860808380EA08
:1002900098E080931E2090931F2086E391E0809346
:1002A0001C2090931D208EE291E080931A20909361
:1002B0001B20E6E0F0E284818D8385818E83868138
:1002C0008F8380819181A281B38189839A83AB835B
:1002D000BC8360E183E016D3BE016F5F7F4F80EA8D
:1002E00098E058D162E871E08BE991E0DCD366E0F8
:1002F00070E080E090E0A7DF2796CDBFDEBFDF9102
:10030000CF910895CF93DF931F92CDB7DEB7809141
:100310001E2090911F20E0911A20F0911B20BE0119
:100320006F5F7F4F19958981082E000C990B0F90F4
:10033000DF91CF910895682F80911E2090911F200A
:10034000E0911C20F0911D20199599231CF081E06B
:1003500090E008958FEF9FEF0895FC01918195FF44
:10036000FDCF608380E090E00895FC0191819923A6
:10037000ECF7808108954F925F926F927F928F92F7
:100380009F92AF92BF92EF92FF920F931F93CF93E2
:100390007C014A015B0128013901FC01848182FF53
:1003A00016C0D901C801689412F8B695A79597951B
:1003B00087951694D1F7B901A801032E36E17695F9
:1003C0006795579547953A95D1F7302D15C0D901C6
:1003D000C801689413F8B695A795979587951694D4
:1003E000D1F7B901A801032E37E1769567955795A6
:1003F00047953A95D1F7302D88159905AA05BB0583
:1004000008F4A2C084169506A606B70608F49EC096
:10041000F701848182FD04C0880C991CAA1CBB1CB6
:10042000C301B201A50194011CD32F3F3105410541
:10043000510508F48DC08FEF90E0A0E0B0E0C9EF67
:1004400005C0281739074A075B0758F0880F991F1E
:10045000AA1FBB1FCD3F0CF48160CF5FC73089F767
:100460004DC0CC230CF04AC0D501C401880F991FA0
:10047000AA1FBB1F880F991FAA1FBB1F880F991F98
:10048000AA1FBB1F481A590A6A0A7B0ACE3FECF41E
:100490008DEF9FEF8C1B9109C7FD939504C0440C11
:1004A000551C661C771C8A95D2F7D501C401B695F8
:1004B000A79597958795BC01CD01640D751D861D87
:1004C000971DA5019401CDD235C083E08C0FA50105
:1004D000940104C0220F331F441F551F8A95D2F781
:1004E000DA01C901B695A79597958795BC01CD010D
:1004F000640D751D861D971DB4D21CC083E08C0F42
:10050000A501940104C0220F331F441F551F8A9573
:10051000D2F7DA01C901B695A79597958795BC01E1
:10052000CD01640D751D861D971D9BD2215031098B
:1005300041095109832F8F70C295C07FC82BF701E5
:10054000C783268381E018C080E016C080E014C015
:10055000D501C401880F991FAA1FBB1F880F991FBF
:10056000AA1FBB1F880F991FAA1FBB1F481A590A31
:100570006A0A7B0AC9EF8CCFCF911F910F91FF9030
:10058000EF90BF90AF909F908F907F906F905F9013
:100590004F9008950F931F93CF93DF93EC018B013E
:1005A000009709F436C1803C910521F460E180E0B8
:1005B000A9D12FC1C03484E0D80721F468E080E0DD
:1005C000A1D127C1C115E4E0DE0721F464E080E099
:1005D00099D11FC1C038F1E0DF0721F462E080E06B
:1005E00091D117C1C11581E0D80721F461E080E005
:1005F00089D10FC1C038E3E0DE0721F461E081E07A
:1006000081D107C1C039F3E0DF0721F461E082E066
:1006100079D1FFC0C11582E0D80721F462E081E002
:1006200071D1F7C0C034E2E0DE0721F462E082E07D
:1006300069D1EFC0C115F3E0DF0721F464E081E088
:1006400061D1E7C0C03283E0D80721F464E082E0E2
:1006500059D1DFC0C115E8E0DE0721F461E083E095
:1006600051D1D7C0C115F9E0DF0721F461E084E082
:1006700049D1CFC0C1158AE0D80721F461E085E0F7
:1006800041D1C7C0C115EBE0DE0721F461E086E08F
:1006900039D1BFC0C034F8E0DF0721F462E083E065
:1006A00031D1B7C0C03489E0D80721F462E084E0DA
:1006B00029D1AFC0C034EAE0DE0721F462E085E072
:1006C00021D1A7C0C034FBE0DF0721F462E086E05F
:1006D00019D19FC0C03988E0D80721F464E083E0D5
:1006E00011D197C0C039E9E0DE0721F464E084E06D
:1006F00009D18FC0C039FAE0DF0721F464E085E05A
:1007000001D187C0C0398BE0D80721F464E086E0CE
:10071000F9D07FC0C03CE8E0DE0721F468E083E068
:10072000F1D077C0C03CF9E0DF0721F468E084E055
:10073000E9D06FC0C03C8AE0D80721F468E085E0CA
:10074000E1D067C0C03CEBE0DE0721F468E086E062
:10075000D9D05FC0C03AF8E0DF0721F460E183E060
:10076000D1D057C0C03A89E0D80721F460E184E0D5
:10077000C9D04FC0C03AEAE0DE0721F460E185E06D
:10078000C1D047C0C03AFBE0DF0721F460E186E05A
:10079000B9D03FC0C03B88E0D80721F460E283E0D5
:1007A000B1D037C0C03BE9E0DE0721F460E284E06D
:1007B000A9D02FC0C03BFAE0DF0721F460E285E05A
:1007C000A1D027C0C03B8BE0D80721F460E286E0CF
:1007D00099D01FC0C038E4E0DE0721F460E483E074
:1007E00091D017C0C039F4E0DF0721F460E484E061
:1007F00089D00FC0C03A84E0D80721F460E485E0D6
:1008000081D007C0C03BE4E0DE0719F460E486E075
:1008100079D08D818F738D83F80195818481892BA7
:100820009681911198E0892B8D83F8014081518147
:100830006281738100E018E428EE31E0CE019BDD97
:100840009C8198609C839C8190619C83DF91CF9177
:100850001F910F9108951F920F920FB60F921124BE
:1008600008B60F9218BE0BB60F921BBE8F939F93C4
:10087000EF93FF93E0ECF7E0948188E0892784838D
:10088000FF91EF919F918F910F900BBE0F9008BE3B
:100890000F900FBE0F901F901895CF93DF931F926C
:1008A0001F92CDB7DEB78FEF8093700080937100F9
:1008B000809372008093730080937400809375001E
:1008C000809376008FB78A83F8949A81E0E5F0E010
:1008D0008081826080839FBF818181FFFDCF61E045
:1008E00080E490E025D08FB78983F8949981E0E582
:1008F000F0E080818E7F80839FBF0F900F90DF910B
:10090000CF910895CF93DF931F92CDB7DEB79FB7F6
:100910009983F8949981E82FF0E0E059FF4F6095B2
:100920008081682360839FBF0F90DF91CF910895EE
:100930001BBEFC0128ED24BF60830895CF93DF9395
:10094000FC0120E030E0C62FD0E0DE01022E02C024
:10095000B595A7950A94E2F7A0FD508B2F5F3F4F06
:1009600031962830310589F740FF0AC041FF03C0A6
:10097000FC01658302C0FC016683FC01618302C047
:10098000FC016283DF91CF91089543E050E068E07D
:1009900080EC97E0D3DF40E058E164E080EC97E042
:1009A000CDCF089504C06150710981099109611585
:1009B000710581059105B9F70895E7DF6EDF58DC11
:1009C0008DE090E2BAD083E190E2B7D0FFCF1F92E2
:1009D0000F920FB60F92112408B60F9218BE09B6E7
:1009E0000F9219BE0AB60F921ABE0BB60F921BBE1B
:1009F0001F932F933F934F935F936F937F938F93A7
:100A00009F93AF93BF93CF93DF93EF93FF93C0EC8C
:100A1000D7E08C8118E081278C8366E573E288E05B
:100A200090E0C0DF8C8118271C83FF91EF91DF914C
:100A3000CF91BF91AF919F918F917F916F915F9176
:100A40004F913F912F911F910F900BBE0F900ABEB7
:100A50000F9009BE0F9008BE0F900FBE0F901F9011
:100A60001895A1E21A2EAA1BBB1BFD010DC0AA1FDF
:100A7000BB1FEE1FFF1FA217B307E407F50720F007
:100A8000A21BB30BE40BF50B661F771F881F991F82
:100A90001A9469F760957095809590959B01AC01CB
:100AA000BD01CF0108950F931F93CF93DF9300975C
:100AB00031F46115710519F480E090E039C08B01C3
:100AC000EC016EE070E081E090E067D0FC01892BE2
:100AD00099F380E883830115110571F0028713876C
:100AE00081E883838091202090912120892B21F41B
:100AF000E0932020F09321202097C9F0C087D18770
:100B00008381826083838091222090912320892B8E
:100B100071F4E0932220F09323208091242090917F
:100B20002520892B21F4E0932420F0932520CF0168
:100B3000DF91CF911F910F9108950F931F93CF9342
:100B4000DF93E0912220F0912320238121FF1BC01D
:100B50008C01D0E0C0E0F80181918F0160912220EA
:100B600070912320DB011896ED91FC911997882351
:100B700031F01995892B79F3DFEFCFEFECCF8AE0D5
:100B80001995892B19F08FEF9FEF02C08D2F9C2FA5
:100B9000DF91CF911F910F9108950F931F93CF93E2
:100BA000DF93869F8001879F100D969F100D112463
:100BB000C8010DD0EC01009721F0A80160E070E0C1
:100BC00027D1CE01DF91CF911F910F9108950F93FF
:100BD0001F93CF93DF938230910510F482E090E071
:100BE000E0912820F091292020E030E0A0E0B0E062
:100BF000309719F1408151810281138148175907BB
:100C0000C8F08417950769F4109731F012960C9389
:100C1000129713961C9327C0009328201093292025
:100C200022C02115310519F04217530718F49A0113
:100C3000BD01EF01DF01F801DBCF21153105F9F02E
:100C4000281B390B2430310580F48A819B81611582
:100C5000710521F0FB018283938304C080932820D7
:100C600090932920FE01329644C0FE01E20FF31F4B
:100C70008193919322503109288339833AC020917E
:100C8000262030912720232B41F4209102203091FF
:100C9000032020932620309327202091002030919C
:100CA00001202115310541F42DB73EB740910420B4
:100CB00050910520241B350BE0912620F091272030
:100CC000E217F307A0F42E1B3F0B2817390778F023
:100CD000AC014E5F5F4F2417350748F04E0F5F1F82
:100CE00040932620509327208193919302C0E0E007
:100CF000F0E0CF01DF91CF911F910F910895CF9335
:100D0000DF93009709F481C0FC01329712821382AD
:100D1000A0912820B0912920109781F42081318161
:100D2000820F931F20912620309127202817390702
:100D300051F5E0932620F093272067C0ED0120E0D5
:100D400030E0CE17DF0740F44A815B819E014115F8
:100D50005105F1F0EA01F5CFC283D383408151817F
:100D6000840F951FC817D90759F488819981840F7A
:100D7000951F0296808391838A819B8182839383CE
:100D80002115310529F4E0932820F09329203DC056
:100D9000E901EA83FB8349915991C40FD51FEC17F0
:100DA000FD0761F480819181840F951F0296E9010E
:100DB00088839983828193818A839B83E0E0F0E03A
:100DC00012968D919C911397009719F0FD01DC010B
:100DD000F7CF8D919C9111979D012E5F3F4F820F10
:100DE000931F20912620309127202817390769F476
:100DF000309729F4109228201092292002C01282E4
:100E00001382A0932620B0932720DF91CF910895DD
:100E1000DC0101C06D9341505040E0F70895F89413
:020E2000FFCF02
:100E220000002A2020008025000003000168656C74
:0A0E32006C6F00776F726C640000B3
:00000001FF
